{"abi":[{"type":"constructor","inputs":[{"name":"_verifier","type":"address","internalType":"address"},{"name":"_poseidon2","type":"address","internalType":"address"}],"stateMutability":"nonpayable"},{"type":"function","name":"ROOT_HISTORY_SIZE","inputs":[],"outputs":[{"name":"","type":"uint256","internalType":"uint256"}],"stateMutability":"view"},{"type":"function","name":"TREE_DEPTH","inputs":[],"outputs":[{"name":"","type":"uint256","internalType":"uint256"}],"stateMutability":"view"},{"type":"function","name":"currentRoot","inputs":[],"outputs":[{"name":"","type":"uint256","internalType":"uint256"}],"stateMutability":"view"},{"type":"function","name":"deposit","inputs":[{"name":"commitment","type":"uint256","internalType":"uint256"},{"name":"token","type":"address","internalType":"address"},{"name":"ciphertext","type":"bytes","internalType":"bytes"}],"outputs":[],"stateMutability":"payable"},{"type":"function","name":"filledSubtrees","inputs":[{"name":"","type":"uint256","internalType":"uint256"}],"outputs":[{"name":"","type":"uint256","internalType":"uint256"}],"stateMutability":"view"},{"type":"function","name":"isKnownRoot","inputs":[{"name":"","type":"uint256","internalType":"uint256"}],"outputs":[{"name":"","type":"bool","internalType":"bool"}],"stateMutability":"view"},{"type":"function","name":"nextIndex","inputs":[],"outputs":[{"name":"","type":"uint256","internalType":"uint256"}],"stateMutability":"view"},{"type":"function","name":"nullifiedNotes","inputs":[{"name":"","type":"uint256","internalType":"uint256"}],"outputs":[{"name":"","type":"bool","internalType":"bool"}],"stateMutability":"view"},{"type":"function","name":"nullifiedTxs","inputs":[{"name":"","type":"uint256","internalType":"uint256"}],"outputs":[{"name":"","type":"bool","internalType":"bool"}],"stateMutability":"view"},{"type":"function","name":"poseidon2","inputs":[],"outputs":[{"name":"","type":"address","internalType":"address"}],"stateMutability":"view"},{"type":"function","name":"shieldedTransfer","inputs":[{"name":"publicInputs","type":"uint256[]","internalType":"uint256[]"},{"name":"proof","type":"bytes","internalType":"bytes"},{"name":"ciphertextOut","type":"bytes","internalType":"bytes"},{"name":"ciphertextChange","type":"bytes","internalType":"bytes"}],"outputs":[],"stateMutability":"nonpayable"},{"type":"function","name":"verifier","inputs":[],"outputs":[{"name":"","type":"address","internalType":"contract IVerifier"}],"stateMutability":"view"},{"type":"function","name":"withdraw","inputs":[{"name":"publicInputs","type":"uint256[]","internalType":"uint256[]"},{"name":"proof","type":"bytes","internalType":"bytes"},{"name":"to","type":"address","internalType":"address"},{"name":"token","type":"address","internalType":"address"},{"name":"value","type":"uint256","internalType":"uint256"}],"outputs":[],"stateMutability":"nonpayable"},{"type":"function","name":"zeros","inputs":[{"name":"","type":"uint256","internalType":"uint256"}],"outputs":[{"name":"","type":"uint256","internalType":"uint256"}],"stateMutability":"view"},{"type":"event","name":"Deposit","inputs":[{"name":"commitment","type":"uint256","indexed":true,"internalType":"uint256"},{"name":"value","type":"uint256","indexed":false,"internalType":"uint256"},{"name":"token","type":"address","indexed":true,"internalType":"address"},{"name":"ciphertext","type":"bytes","indexed":false,"internalType":"bytes"},{"name":"leafIndex","type":"uint256","indexed":false,"internalType":"uint256"},{"name":"newRoot","type":"uint256","indexed":false,"internalType":"uint256"}],"anonymous":false},{"type":"event","name":"Transfer","inputs":[{"name":"nfNote","type":"uint256","indexed":true,"internalType":"uint256"},{"name":"nfTx","type":"uint256","indexed":true,"internalType":"uint256"},{"name":"cmOut","type":"uint256","indexed":false,"internalType":"uint256"},{"name":"cmChange","type":"uint256","indexed":false,"internalType":"uint256"},{"name":"newRoot","type":"uint256","indexed":false,"internalType":"uint256"},{"name":"ciphertextOut","type":"bytes","indexed":false,"internalType":"bytes"},{"name":"ciphertextChange","type":"bytes","indexed":false,"internalType":"bytes"}],"anonymous":false},{"type":"event","name":"Withdrawal","inputs":[{"name":"nfNote","type":"uint256","indexed":true,"internalType":"uint256"},{"name":"nfTx","type":"uint256","indexed":true,"internalType":"uint256"},{"name":"to","type":"address","indexed":true,"internalType":"address"},{"name":"value","type":"uint256","indexed":false,"internalType":"uint256"},{"name":"token","type":"address","indexed":false,"internalType":"address"}],"anonymous":false}],"bytecode":{"object":"0x3461008a576110723881900360c0601f8201601f19168101906001600160401b0382119082101761008e576040928291845260c0391261008a576100546100446100a2565b61004e60e06100b8565b90610175565b604051610df6908161027c823960805181818161013c015281816104e90152610afc015260a0518181816101de0152610d960152f35b5f80fd5b634e487b7160e01b5f52604160045260245ffd5b60c051906001600160a01b038216820361008a57565b51906001600160a01b038216820361008a57565b156100d357565b60405162461bcd60e51b815260206004820152601960248201527f496e76616c696420506f736569646f6e322061646472657373000000000000006044820152606490fd5b634e487b7160e01b5f52603260045260245ffd5b601581101561013d57601901905f90565b610118565b906001820180921161015057565b634e487b7160e01b5f52601160045260245ffd5b601481101561013d57600501905f90565b6101896001600160a01b03831615156100cc565b6001600160a01b031660805260a0525f6019555f5b601481106101d15750602d545f556101cf6101c25f545f52600260205260405f2090565b805460ff19166001179055565b565b8061022b6102026101f06101e660019561012c565b90549060031b1c90565b6101fc6101e68561012c565b90610249565b61021361020e84610142565b61012c565b90919082549060031b91821b915f19901b1916179055565b61024361023a6101e68361012c565b61021383610164565b0161019e565b90602090606060018060a01b0360a05116936040519485938492600184528684015260408301525afa1561008a57519056fe60806040526004361015610011575f80fd5b5f3560e01c806316ad3004146100f45780632b7ac3f3146100ef578063a6232a93146100ea578063b4b69f29146100e5578063ca5ee4b2146100e0578063cd87a3b4146100db578063d0737478146100d6578063e8295588146100d1578063e857e677146100cc578063f1650536146100c7578063f178e47c146100c2578063faa9bce9146100bd578063fc7e9c6f146100b85763fdab463d146100b3575f80fd5b610782565b610765565b610698565b61066c565b610640565b6103c2565b610354565b610287565b61020d565b6101c9565b61019a565b61016b565b610127565b34610123576020366003190112610123576004355f526003602052602060ff60405f2054166040519015158152f35b5f80fd5b34610123575f366003190112610123576040517f00000000000000000000000000000000000000000000000000000000000000006001600160a01b03168152602090f35b34610123576020366003190112610123576004355f526002602052602060ff60405f2054166040519015158152f35b34610123576020366003190112610123576004355f526004602052602060ff60405f2054166040519015158152f35b34610123575f366003190112610123576040517f00000000000000000000000000000000000000000000000000000000000000006001600160a01b03168152602090f35b34610123575f36600319011261012357602060405160648152f35b9181601f840112156101235782359167ffffffffffffffff8311610123576020808501948460051b01011161012357565b9181601f840112156101235782359167ffffffffffffffff8311610123576020838186019501011161012357565b346101235760803660031901126101235760043567ffffffffffffffff8111610123576102b8903690600401610228565b60243567ffffffffffffffff8111610123576102d8903690600401610259565b60449391933567ffffffffffffffff8111610123576102fb903690600401610259565b916064359567ffffffffffffffff871161012357610320610328973690600401610259565b969095610a2f565b005b634e487b7160e01b5f52603260045260245ffd5b601581101561034f57601901905f90565b61032a565b346101235760203660031901126101235760043560158110156101235760209060190154604051908152f35b604435906001600160a01b038216820361012357565b606435906001600160a01b038216820361012357565b602435906001600160a01b038216820361012357565b346101235760a03660031901126101235760043567ffffffffffffffff8111610123576103f3903690600401610228565b9060243567ffffffffffffffff811161012357610414903690600401610259565b92909161041f610380565b90610428610396565b9060206084359661043c6005871015610bbc565b61044686846107ea565b35966104e561045588866107f3565b359761048661048161047a61046a848a610802565b359c5f52600260205260405f2090565b5460ff1690565b61082f565b6104aa6104a56104a161047a8c5f52600360205260405f2090565b1590565b61086a565b6104ca6104c56104a161047a8d5f52600460205260405f2090565b6108ab565b604051634b24ed5760e11b815295869485946004860161096a565b03817f00000000000000000000000000000000000000000000000000000000000000006001600160a01b03165afa801561063b5761052a915f9161060c575b506109b7565b61054c61053f845f52600360205260405f2090565b805460ff19166001179055565b61056161053f855f52600460205260405f2090565b6001600160a01b0381166105c757816105aa5f8080808a7fa8a38eef6136e247a3d24f1012746d6b7e0a003fbe0423bd0728ae3907f7bc12985af16105a4610c00565b50610c3f565b604080519687526001600160a01b039283166020880152911694a4005b60405162461bcd60e51b815260206004820152601960248201527f4552433230206e6f742079657420696d706c656d656e746564000000000000006044820152606490fd5b61062e915060203d602011610634575b610626818361090b565b810190610932565b5f610524565b503d61061c565b6109ac565b34610123575f36600319011261012357602060405160148152f35b601481101561034f57600501905f90565b346101235760203660031901126101235760043560148110156101235760209060050154604051908152f35b6060366003190112610123576004356106af6103ac565b9060443567ffffffffffffffff8111610123576106d0903690600401610259565b6001600160a01b039093169290836105c75734801561072b576107267f88323e80180a3a69157796f0c873cd1b4eefad13ee8a83368f83b94e0007d9899361071786610ccc565b5f549160405195869586610c81565b0390a3005b60405162461bcd60e51b815260206004820152601260248201527116995c9bc81d985b1d594819195c1bdcda5d60721b6044820152606490fd5b34610123575f366003190112610123576020600154604051908152f35b34610123575f3660031901126101235760205f54604051908152f35b156107a557565b60405162461bcd60e51b815260206004820152601c60248201527f496e76616c6964207075626c696320696e70757473206c656e677468000000006044820152606490fd5b901561034f5790565b906001101561034f5760200190565b906002101561034f5760400190565b906003101561034f5760600190565b906004101561034f5760800190565b1561083657565b60405162461bcd60e51b815260206004820152600c60248201526b155b9adb9bdddb881c9bdbdd60a21b6044820152606490fd5b1561087157565b60405162461bcd60e51b8152602060048201526012602482015271139bdd1948185b1c9958591e481cdc195b9d60721b6044820152606490fd5b156108b257565b60405162461bcd60e51b815260206004820152601860248201527f5472616e73616374696f6e20616c7265616479207573656400000000000000006044820152606490fd5b634e487b7160e01b5f52604160045260245ffd5b90601f8019910116810190811067ffffffffffffffff82111761092d57604052565b6108f7565b90816020910312610123575180151581036101235790565b908060209392818452848401375f828201840152601f01601f1916010190565b919061097e9160408452604084019161094a565b8181036020909201919091528281526001600160fb1b0383116101235760209260051b809284830137010190565b6040513d5f823e3d90fd5b156109be57565b60405162461bcd60e51b815260206004820152600d60248201526c24b73b30b634b210383937b7b360991b6044820152606490fd5b95939192610a1e93610a2c98969288526020880152604087015260a0606087015260a086019161094a565b92608081850391015261094a565b90565b94969095919391610a426008881461079e565b610a4c87876107ea565b3597610a5888886107f3565b3594610a648989610802565b3596610a708a8a610811565b3599610a7c818b610820565b359b610a90905f52600260205260405f2090565b5460ff16610a9d9061082f565b610aaf8b5f52600360205260405f2090565b5460ff1615610abd9061086a565b610acf8c5f52600460205260405f2090565b5460ff1615610add906108ab565b604051634b24ed5760e11b8152998a93610afa936004860161096a565b7f00000000000000000000000000000000000000000000000000000000000000006001600160a01b031691899103815a93602094fa93841561063b57610b6b610bb7957f9de88d583b09ec06b805ed65047713eaeb77746e7f4e6e4864bd1f3b4dd71879995f9161060c57506109b7565b610b8061053f8a5f52600360205260405f2090565b610b9561053f8b5f52600460205260405f2090565b610b9e86610ccc565b50610ba887610ccc565b505f54604051978897886109f3565b0390a3565b15610bc357565b60405162461bcd60e51b8152602060048201526015602482015274496e76616c6964207075626c696320696e7075747360581b6044820152606490fd5b3d15610c3a573d9067ffffffffffffffff821161092d5760405191610c2f601f8201601f19166020018461090b565b82523d5f602084013e565b606090565b15610c4657565b60405162461bcd60e51b8152602060048201526013602482015272115512081d1c985b9cd9995c8819985a5b1959606a1b6044820152606490fd5b91606093610ca09297969597845260806020850152608084019161094a565b9460408201520152565b9060018201809211610cb857565b634e487b7160e01b5f52601160045260245ffd5b9060015491825f5b60148110610d095750505f55610cf661053f5f545f52600260205260405f2090565b610d07610d0283610caa565b600155565b565b9091610d5f600191828516155f14610d6657610d5890610d288561065b565b81549060031b9083821b915f19901b1916179055610d52610d488661033e565b90549060031b1c90565b90610d7b565b9360011c90565b9101610cd4565b610d5890610d738561065b565b90549060031b1c5b906040519160018352602083015260408201526020816060817f00000000000000000000000000000000000000000000000000000000000000005afa1561012357519056fea2646970667358221220a5dd211bfbe69d9c142c221d22f047ede041fd98cae8e81cc5e975e7c7042e7464736f6c634300081f0033","linkReferences":{}},"methodIdentifiers":{"ROOT_HISTORY_SIZE()":"cd87a3b4","TREE_DEPTH()":"f1650536","currentRoot()":"fdab463d","deposit(uint256,address,bytes)":"faa9bce9","filledSubtrees(uint256)":"f178e47c","isKnownRoot(uint256)":"a6232a93","nextIndex()":"fc7e9c6f","nullifiedNotes(uint256)":"16ad3004","nullifiedTxs(uint256)":"b4b69f29","poseidon2()":"ca5ee4b2","shieldedTransfer(uint256[],bytes,bytes,bytes)":"d0737478","verifier()":"2b7ac3f3","withdraw(uint256[],bytes,address,address,uint256)":"e857e677","zeros(uint256)":"e8295588"},"id":2}